{
  "contractName": "LoanProfile",
  "abi": [
    {
      "inputs": [
        {
          "internalType": "uint256",
          "name": "_loanId",
          "type": "uint256"
        },
        {
          "internalType": "uint256",
          "name": "_loanAmount",
          "type": "uint256"
        },
        {
          "internalType": "uint256",
          "name": "_timePeriod",
          "type": "uint256"
        },
        {
          "internalType": "address",
          "name": "HCTokenAddress",
          "type": "address"
        }
      ],
      "stateMutability": "nonpayable",
      "type": "constructor"
    },
    {
      "anonymous": false,
      "inputs": [
        {
          "indexed": true,
          "internalType": "address",
          "name": "previousOwner",
          "type": "address"
        },
        {
          "indexed": true,
          "internalType": "address",
          "name": "newOwner",
          "type": "address"
        }
      ],
      "name": "OwnershipTransferred",
      "type": "event"
    },
    {
      "anonymous": false,
      "inputs": [
        {
          "indexed": false,
          "internalType": "uint256",
          "name": "newAmount",
          "type": "uint256"
        }
      ],
      "name": "updatedCollectedAmount",
      "type": "event"
    },
    {
      "inputs": [],
      "name": "USDCAddress",
      "outputs": [
        {
          "internalType": "address",
          "name": "",
          "type": "address"
        }
      ],
      "stateMutability": "view",
      "type": "function",
      "constant": true
    },
    {
      "inputs": [],
      "name": "collectedAmount",
      "outputs": [
        {
          "internalType": "uint256",
          "name": "",
          "type": "uint256"
        }
      ],
      "stateMutability": "view",
      "type": "function",
      "constant": true
    },
    {
      "inputs": [
        {
          "internalType": "address",
          "name": "",
          "type": "address"
        }
      ],
      "name": "hasInvested",
      "outputs": [
        {
          "internalType": "bool",
          "name": "",
          "type": "bool"
        }
      ],
      "stateMutability": "view",
      "type": "function",
      "constant": true
    },
    {
      "inputs": [],
      "name": "homeOwner",
      "outputs": [
        {
          "internalType": "address",
          "name": "",
          "type": "address"
        }
      ],
      "stateMutability": "view",
      "type": "function",
      "constant": true
    },
    {
      "inputs": [
        {
          "internalType": "address",
          "name": "",
          "type": "address"
        }
      ],
      "name": "investedAmount",
      "outputs": [
        {
          "internalType": "uint256",
          "name": "",
          "type": "uint256"
        }
      ],
      "stateMutability": "view",
      "type": "function",
      "constant": true
    },
    {
      "inputs": [
        {
          "internalType": "uint256",
          "name": "",
          "type": "uint256"
        }
      ],
      "name": "investors",
      "outputs": [
        {
          "internalType": "address",
          "name": "",
          "type": "address"
        }
      ],
      "stateMutability": "view",
      "type": "function",
      "constant": true
    },
    {
      "inputs": [
        {
          "internalType": "address",
          "name": "",
          "type": "address"
        }
      ],
      "name": "isInvesting",
      "outputs": [
        {
          "internalType": "bool",
          "name": "",
          "type": "bool"
        }
      ],
      "stateMutability": "view",
      "type": "function",
      "constant": true
    },
    {
      "inputs": [],
      "name": "loanAmount",
      "outputs": [
        {
          "internalType": "uint256",
          "name": "",
          "type": "uint256"
        }
      ],
      "stateMutability": "view",
      "type": "function",
      "constant": true
    },
    {
      "inputs": [],
      "name": "loanId",
      "outputs": [
        {
          "internalType": "uint256",
          "name": "",
          "type": "uint256"
        }
      ],
      "stateMutability": "view",
      "type": "function",
      "constant": true
    },
    {
      "inputs": [],
      "name": "name",
      "outputs": [
        {
          "internalType": "string",
          "name": "",
          "type": "string"
        }
      ],
      "stateMutability": "view",
      "type": "function",
      "constant": true
    },
    {
      "inputs": [],
      "name": "owner",
      "outputs": [
        {
          "internalType": "address",
          "name": "",
          "type": "address"
        }
      ],
      "stateMutability": "view",
      "type": "function",
      "constant": true
    },
    {
      "inputs": [],
      "name": "renounceOwnership",
      "outputs": [],
      "stateMutability": "nonpayable",
      "type": "function"
    },
    {
      "inputs": [],
      "name": "timeCreated",
      "outputs": [
        {
          "internalType": "uint256",
          "name": "",
          "type": "uint256"
        }
      ],
      "stateMutability": "view",
      "type": "function",
      "constant": true
    },
    {
      "inputs": [],
      "name": "timePeriod",
      "outputs": [
        {
          "internalType": "uint256",
          "name": "",
          "type": "uint256"
        }
      ],
      "stateMutability": "view",
      "type": "function",
      "constant": true
    },
    {
      "inputs": [],
      "name": "timeValidated",
      "outputs": [
        {
          "internalType": "uint256",
          "name": "",
          "type": "uint256"
        }
      ],
      "stateMutability": "view",
      "type": "function",
      "constant": true
    },
    {
      "inputs": [],
      "name": "token",
      "outputs": [
        {
          "internalType": "contract HCToken",
          "name": "",
          "type": "address"
        }
      ],
      "stateMutability": "view",
      "type": "function",
      "constant": true
    },
    {
      "inputs": [
        {
          "internalType": "address",
          "name": "newOwner",
          "type": "address"
        }
      ],
      "name": "transferOwnership",
      "outputs": [],
      "stateMutability": "nonpayable",
      "type": "function"
    },
    {
      "inputs": [
        {
          "internalType": "uint256",
          "name": "_amount",
          "type": "uint256"
        }
      ],
      "name": "deposit",
      "outputs": [],
      "stateMutability": "nonpayable",
      "type": "function"
    },
    {
      "inputs": [],
      "name": "refund",
      "outputs": [],
      "stateMutability": "payable",
      "type": "function",
      "payable": true
    },
    {
      "inputs": [],
      "name": "loanFulfilled",
      "outputs": [],
      "stateMutability": "nonpayable",
      "type": "function"
    }
  ],
  "bytecode": "0x60806040526040518060400160405280600a81526020017f4d6f727467616765204100000000000000000000000000000000000000000000815250600190816200004a91906200070d565b5073c6a3dd9e9d73eb3e66669534ed21ee169aed7f14600260006101000a81548173ffffffffffffffffffffffffffffffffffffffff021916908373ffffffffffffffffffffffffffffffffffffffff1602179055507307865c6e87b9f70255377e024ace6630c1eaa37f600a60006101000a81548173ffffffffffffffffffffffffffffffffffffffff021916908373ffffffffffffffffffffffffffffffffffffffff160217905550600a60009054906101000a900473ffffffffffffffffffffffffffffffffffffffff16600b60006101000a81548173ffffffffffffffffffffffffffffffffffffffff021916908373ffffffffffffffffffffffffffffffffffffffff1602179055503480156200016557600080fd5b50604051620022f5380380620022f583398181016040528101906200018b91906200088f565b620001bd620001a8620002f5640100000000026401000000009004565b620002fd640100000000026401000000009004565b620001d6620003c1640100000000026401000000009004565b83600781905550826003819055508160048190555042600581905550600060068190555080600960006101000a81548173ffffffffffffffffffffffffffffffffffffffff021916908373ffffffffffffffffffffffffffffffffffffffff160217905550600960009054906101000a900473ffffffffffffffffffffffffffffffffffffffff1673ffffffffffffffffffffffffffffffffffffffff166340c10f193060646040518363ffffffff167c0100000000000000000000000000000000000000000000000000000000028152600401620002b792919062000955565b600060405180830381600087803b158015620002d257600080fd5b505af1158015620002e7573d6000803e3d6000fd5b505050505050505062000a05565b600033905090565b60008060009054906101000a900473ffffffffffffffffffffffffffffffffffffffff169050816000806101000a81548173ffffffffffffffffffffffffffffffffffffffff021916908373ffffffffffffffffffffffffffffffffffffffff1602179055508173ffffffffffffffffffffffffffffffffffffffff168173ffffffffffffffffffffffffffffffffffffffff167f8be0079c531659141344cd1fd0a4f28419497f9722a3daafe3b4186f6b6457e060405160405180910390a35050565b620003da620002f5640100000000026401000000009004565b73ffffffffffffffffffffffffffffffffffffffff166200040962000464640100000000026401000000009004565b73ffffffffffffffffffffffffffffffffffffffff161462000462576040517f08c379a00000000000000000000000000000000000000000000000000000000081526004016200045990620009e3565b60405180910390fd5b565b60008060009054906101000a900473ffffffffffffffffffffffffffffffffffffffff16905090565b600081519050919050565b7f4e487b7100000000000000000000000000000000000000000000000000000000600052604160045260246000fd5b7f4e487b7100000000000000000000000000000000000000000000000000000000600052602260045260246000fd5b600060028204905060018216806200050f57607f821691505b602082108103620005255762000524620004c7565b5b50919050565b60008190508160005260206000209050919050565b60006020601f8301049050919050565b60008160020a8302905092915050565b600060088302620005927fffffffffffffffffffffffffffffffffffffffffffffffffffffffffffffffff8262000550565b6200059e868362000550565b95508019841693508086168417925050509392505050565b6000819050919050565b6000819050919050565b6000620005eb620005e5620005df84620005b6565b620005c0565b620005b6565b9050919050565b6000819050919050565b6200060783620005ca565b6200061f6200061682620005f2565b84845462000560565b825550505050565b600090565b6200063662000627565b62000643818484620005fc565b505050565b5b818110156200066b576200065f6000826200062c565b60018101905062000649565b5050565b601f821115620006ba5762000684816200052b565b6200068f8462000540565b810160208510156200069f578190505b620006b7620006ae8562000540565b83018262000648565b50505b505050565b60008160020a8304905092915050565b6000620006e260001984600802620006bf565b1980831691505092915050565b6000620006fd8383620006cf565b9150826002028217905092915050565b62000718826200048d565b67ffffffffffffffff81111562000734576200073362000498565b5b620007408254620004f6565b6200074d8282856200066f565b600060209050601f83116001811462000785576000841562000770578287015190505b6200077c8582620006ef565b865550620007ec565b601f19841662000795866200052b565b60005b82811015620007bf5784890151825560018201915060208501945060208101905062000798565b86831015620007df5784890151620007db601f891682620006cf565b8355505b6001600288020188555050505b505050505050565b600080fd5b6200080481620005b6565b81146200081057600080fd5b50565b6000815190506200082481620007f9565b92915050565b600073ffffffffffffffffffffffffffffffffffffffff82169050919050565b600062000857826200082a565b9050919050565b62000869816200084a565b81146200087557600080fd5b50565b60008151905062000889816200085e565b92915050565b60008060008060808587031215620008ac57620008ab620007f4565b5b6000620008bc8782880162000813565b9450506020620008cf8782880162000813565b9350506040620008e28782880162000813565b9250506060620008f58782880162000878565b91505092959194509250565b6200090c816200084a565b82525050565b6000819050919050565b60006200093d62000937620009318462000912565b620005c0565b620005b6565b9050919050565b6200094f816200091c565b82525050565b60006040820190506200096c600083018562000901565b6200097b602083018462000944565b9392505050565b600082825260208201905092915050565b7f4f776e61626c653a2063616c6c6572206973206e6f7420746865206f776e6572600082015250565b6000620009cb60208362000982565b9150620009d88262000993565b602082019050919050565b60006020820190508181036000830152620009fe81620009bc565b9050919050565b6118e08062000a156000396000f3fe60806040526004361061013c576000357c010000000000000000000000000000000000000000000000000000000090048063935d8b1f116100bd578063e930320911610081578063e9303209146103b1578063edb9a5c0146103dc578063f1653f6e14610419578063f2fde38b14610444578063fc0c546a1461046d5761013c565b8063935d8b1f146102ca5780639d585f7f146102f5578063b6b55f2514610320578063c95669a514610349578063cff77444146103745761013c565b806362833fcf1161010457806362833fcf146101f55780636831074914610232578063715018a61461025d578063802c6ee5146102745780638da5cb5b1461029f5761013c565b806306fdde0314610141578063161911231461016c5780633e79d1e1146101835780633feb5f2b146101ae578063590e1ae3146101eb575b600080fd5b34801561014d57600080fd5b50610156610498565b6040516101639190611159565b60405180910390f35b34801561017857600080fd5b50610181610526565b005b34801561018f57600080fd5b5061019861062a565b6040516101a59190611194565b60405180910390f35b3480156101ba57600080fd5b506101d560048036038101906101d091906111e0565b610630565b6040516101e2919061124e565b60405180910390f35b6101f361066f565b005b34801561020157600080fd5b5061021c60048036038101906102179190611295565b610952565b60405161022991906112dd565b60405180910390f35b34801561023e57600080fd5b50610247610972565b604051610254919061124e565b60405180910390f35b34801561026957600080fd5b50610272610998565b005b34801561028057600080fd5b506102896109ac565b6040516102969190611194565b60405180910390f35b3480156102ab57600080fd5b506102b46109b2565b6040516102c1919061124e565b60405180910390f35b3480156102d657600080fd5b506102df6109db565b6040516102ec9190611194565b60405180910390f35b34801561030157600080fd5b5061030a6109e1565b6040516103179190611194565b60405180910390f35b34801561032c57600080fd5b50610347600480360381019061034291906111e0565b6109e7565b005b34801561035557600080fd5b5061035e610d87565b60405161036b9190611194565b60405180910390f35b34801561038057600080fd5b5061039b60048036038101906103969190611295565b610d8d565b6040516103a89190611194565b60405180910390f35b3480156103bd57600080fd5b506103c6610da5565b6040516103d3919061124e565b60405180910390f35b3480156103e857600080fd5b5061040360048036038101906103fe9190611295565b610dcb565b60405161041091906112dd565b60405180910390f35b34801561042557600080fd5b5061042e610deb565b60405161043b9190611194565b60405180910390f35b34801561045057600080fd5b5061046b60048036038101906104669190611295565b610df1565b005b34801561047957600080fd5b50610482610e74565b60405161048f9190611357565b60405180910390f35b600180546104a5906113a1565b80601f01602080910402602001604051908101604052809291908181526020018280546104d1906113a1565b801561051e5780601f106104f35761010080835404028352916020019161051e565b820191906000526020600020905b81548152906001019060200180831161050157829003601f168201915b505050505081565b61052e610e9a565b6003546006541461053e57600080fd5b42600881905550600b60009054906101000a900473ffffffffffffffffffffffffffffffffffffffff1673ffffffffffffffffffffffffffffffffffffffff166323b872dd30600260009054906101000a900473ffffffffffffffffffffffffffffffffffffffff166006546040518463ffffffff167c01000000000000000000000000000000000000000000000000000000000281526004016105e4939291906113d2565b6020604051808303816000875af1158015610603573d6000803e3d6000fd5b505050506040513d601f19601f820116820180604052508101906106279190611435565b50565b60045481565b600c818154811061064057600080fd5b906000526020600020016000915054906101000a900473ffffffffffffffffffffffffffffffffffffffff1681565b60045460055461067f9190611491565b4210156106c1576040517f08c379a00000000000000000000000000000000000000000000000000000000081526004016106b890611559565b60405180910390fd5b600f60003373ffffffffffffffffffffffffffffffffffffffff1673ffffffffffffffffffffffffffffffffffffffff16815260200190815260200160002060009054906101000a900460ff1661074d576040517f08c379a0000000000000000000000000000000000000000000000000000000008152600401610744906115c5565b60405180910390fd5b6000600d60003373ffffffffffffffffffffffffffffffffffffffff1673ffffffffffffffffffffffffffffffffffffffff1681526020019081526020016000205490508034146107d3576040517f08c379a00000000000000000000000000000000000000000000000000000000081526004016107ca90611631565b60405180910390fd5b600b60009054906101000a900473ffffffffffffffffffffffffffffffffffffffff1673ffffffffffffffffffffffffffffffffffffffff1663a9059cbb33836040518363ffffffff167c010000000000000000000000000000000000000000000000000000000002815260040161084c929190611651565b6020604051808303816000875af115801561086b573d6000803e3d6000fd5b505050506040513d601f19601f8201168201806040525081019061088f9190611435565b50600960009054906101000a900473ffffffffffffffffffffffffffffffffffffffff1673ffffffffffffffffffffffffffffffffffffffff166323b872dd3330846040518463ffffffff167c010000000000000000000000000000000000000000000000000000000002815260040161090b939291906113d2565b6020604051808303816000875af115801561092a573d6000803e3d6000fd5b505050506040513d601f19601f8201168201806040525081019061094e9190611435565b5050565b600f6020528060005260406000206000915054906101000a900460ff1681565b600260009054906101000a900473ffffffffffffffffffffffffffffffffffffffff1681565b6109a0610e9a565b6109aa6000610f18565b565b60065481565b60008060009054906101000a900473ffffffffffffffffffffffffffffffffffffffff16905090565b60085481565b60035481565b60008111610a2a576040517f08c379a0000000000000000000000000000000000000000000000000000000008152600401610a21906116c6565b60405180910390fd5b600454600554610a3a9190611491565b4210610a7b576040517f08c379a0000000000000000000000000000000000000000000000000000000008152600401610a7290611732565b60405180910390fd5b600b60009054906101000a900473ffffffffffffffffffffffffffffffffffffffff1673ffffffffffffffffffffffffffffffffffffffff166323b872dd3330846040518463ffffffff167c0100000000000000000000000000000000000000000000000000000000028152600401610af6939291906113d2565b6020604051808303816000875af1158015610b15573d6000803e3d6000fd5b505050506040513d601f19601f82011682018060405250810190610b399190611435565b5080600d60003373ffffffffffffffffffffffffffffffffffffffff1673ffffffffffffffffffffffffffffffffffffffff16815260200190815260200160002054610b859190611491565b600d60003373ffffffffffffffffffffffffffffffffffffffff1673ffffffffffffffffffffffffffffffffffffffff16815260200190815260200160002081905550600e60003373ffffffffffffffffffffffffffffffffffffffff1673ffffffffffffffffffffffffffffffffffffffff16815260200190815260200160002060009054906101000a900460ff16610c7d57600c339080600181540180825580915050600190039060005260206000200160009091909190916101000a81548173ffffffffffffffffffffffffffffffffffffffff021916908373ffffffffffffffffffffffffffffffffffffffff1602179055505b6001600f60003373ffffffffffffffffffffffffffffffffffffffff1673ffffffffffffffffffffffffffffffffffffffff16815260200190815260200160002060006101000a81548160ff0219169083151502179055506001600e60003373ffffffffffffffffffffffffffffffffffffffff1673ffffffffffffffffffffffffffffffffffffffff16815260200190815260200160002060006101000a81548160ff02191690831515021790555080600654610d3b9190611491565b600681905550610d4b3382610fdc565b7f0475eed5ceac333c1b6f34394bc989a7fe3cf18cb633600c42e8fb5a3a02c301600654604051610d7c9190611194565b60405180910390a150565b60075481565b600d6020528060005260406000206000915090505481565b600a60009054906101000a900473ffffffffffffffffffffffffffffffffffffffff1681565b600e6020528060005260406000206000915054906101000a900460ff1681565b60055481565b610df9610e9a565b600073ffffffffffffffffffffffffffffffffffffffff168173ffffffffffffffffffffffffffffffffffffffff1603610e68576040517f08c379a0000000000000000000000000000000000000000000000000000000008152600401610e5f906117c4565b60405180910390fd5b610e7181610f18565b50565b600960009054906101000a900473ffffffffffffffffffffffffffffffffffffffff1681565b610ea26110af565b73ffffffffffffffffffffffffffffffffffffffff16610ec06109b2565b73ffffffffffffffffffffffffffffffffffffffff1614610f16576040517f08c379a0000000000000000000000000000000000000000000000000000000008152600401610f0d90611830565b60405180910390fd5b565b60008060009054906101000a900473ffffffffffffffffffffffffffffffffffffffff169050816000806101000a81548173ffffffffffffffffffffffffffffffffffffffff021916908373ffffffffffffffffffffffffffffffffffffffff1602179055508173ffffffffffffffffffffffffffffffffffffffff168173ffffffffffffffffffffffffffffffffffffffff167f8be0079c531659141344cd1fd0a4f28419497f9722a3daafe3b4186f6b6457e060405160405180910390a35050565b600960009054906101000a900473ffffffffffffffffffffffffffffffffffffffff1673ffffffffffffffffffffffffffffffffffffffff1663a9059cbb83836110246110b7565b61102e9190611850565b6040518363ffffffff167c0100000000000000000000000000000000000000000000000000000000028152600401611067929190611651565b6020604051808303816000875af1158015611086573d6000803e3d6000fd5b505050506040513d601f19601f820116820180604052508101906110aa9190611435565b505050565b600033905090565b60006001905090565b600081519050919050565b600082825260208201905092915050565b60005b838110156110fa5780820151818401526020810190506110df565b83811115611109576000848401525b50505050565b6000601f19601f8301169050919050565b600061112b826110c0565b61113581856110cb565b93506111458185602086016110dc565b61114e8161110f565b840191505092915050565b600060208201905081810360008301526111738184611120565b905092915050565b6000819050919050565b61118e8161117b565b82525050565b60006020820190506111a96000830184611185565b92915050565b600080fd5b6111bd8161117b565b81146111c857600080fd5b50565b6000813590506111da816111b4565b92915050565b6000602082840312156111f6576111f56111af565b5b6000611204848285016111cb565b91505092915050565b600073ffffffffffffffffffffffffffffffffffffffff82169050919050565b60006112388261120d565b9050919050565b6112488161122d565b82525050565b6000602082019050611263600083018461123f565b92915050565b6112728161122d565b811461127d57600080fd5b50565b60008135905061128f81611269565b92915050565b6000602082840312156112ab576112aa6111af565b5b60006112b984828501611280565b91505092915050565b60008115159050919050565b6112d7816112c2565b82525050565b60006020820190506112f260008301846112ce565b92915050565b6000819050919050565b600061131d6113186113138461120d565b6112f8565b61120d565b9050919050565b600061132f82611302565b9050919050565b600061134182611324565b9050919050565b61135181611336565b82525050565b600060208201905061136c6000830184611348565b92915050565b7f4e487b7100000000000000000000000000000000000000000000000000000000600052602260045260246000fd5b600060028204905060018216806113b957607f821691505b6020821081036113cc576113cb611372565b5b50919050565b60006060820190506113e7600083018661123f565b6113f4602083018561123f565b6114016040830184611185565b949350505050565b611412816112c2565b811461141d57600080fd5b50565b60008151905061142f81611409565b92915050565b60006020828403121561144b5761144a6111af565b5b600061145984828501611420565b91505092915050565b7f4e487b7100000000000000000000000000000000000000000000000000000000600052601160045260246000fd5b600061149c8261117b565b91506114a78361117b565b9250827fffffffffffffffffffffffffffffffffffffffffffffffffffffffffffffffff038211156114dc576114db611462565b5b828201905092915050565b7f546865206c6f616e20706572696f64206861736e27742070617373656420796560008201527f7400000000000000000000000000000000000000000000000000000000000000602082015250565b60006115436021836110cb565b915061154e826114e7565b604082019050919050565b6000602082019050818103600083015261157281611536565b9050919050565b7f596f75277265206e6f7420616e20696e766573746f7200000000000000000000600082015250565b60006115af6016836110cb565b91506115ba82611579565b602082019050919050565b600060208201905081810360008301526115de816115a2565b9050919050565b7f416d6f756e74206f6620746f6b656e7320696e76616c69640000000000000000600082015250565b600061161b6018836110cb565b9150611626826115e5565b602082019050919050565b6000602082019050818103600083015261164a8161160e565b9050919050565b6000604082019050611666600083018561123f565b6116736020830184611185565b9392505050565b7f416d6f756e742063616e6e6f7420626520300000000000000000000000000000600082015250565b60006116b06012836110cb565b91506116bb8261167a565b602082019050919050565b600060208201905081810360008301526116df816116a3565b9050919050565b7f546865206c6f616e20706572696f64206973206f766572000000000000000000600082015250565b600061171c6017836110cb565b9150611727826116e6565b602082019050919050565b6000602082019050818103600083015261174b8161170f565b9050919050565b7f4f776e61626c653a206e6577206f776e657220697320746865207a65726f206160008201527f6464726573730000000000000000000000000000000000000000000000000000602082015250565b60006117ae6026836110cb565b91506117b982611752565b604082019050919050565b600060208201905081810360008301526117dd816117a1565b9050919050565b7f4f776e61626c653a2063616c6c6572206973206e6f7420746865206f776e6572600082015250565b600061181a6020836110cb565b9150611825826117e4565b602082019050919050565b600060208201905081810360008301526118498161180d565b9050919050565b600061185b8261117b565b91506118668361117b565b9250817fffffffffffffffffffffffffffffffffffffffffffffffffffffffffffffffff048311821515161561189f5761189e611462565b5b82820290509291505056fea264697066735822122019453b1fd3ce89c00f5b3b6ab4fbae20dcaa17bfe5749c43973fbc6f7421a72964736f6c634300080f0033",
  "immutableReferences": {},
  "source": "pragma solidity ^0.8.15;\n\nimport \"./HCToken.sol\";\nimport \"@openzeppelin/contracts/access/Ownable.sol\";\n\n//The interfaces are commented out because of the version conflict\ninterface USDCInterface {\n    function balanceOf(address account) external view returns (uint256);\n    function transfer(address to, uint256 amount) external returns (bool);\n    function allowance(address owner, address spender) external view returns (uint256);\n    function approve(address spender, uint256 amount) external returns (bool);\n    function transferFrom(address from, address to, uint256 amount) external returns (bool);\n}\n\n// contract USDTInterface {\n//     event Transfer(address indexed from, address indexed to, uint256 value);\n//     event Approval(address indexed owner, address indexed spender, uint256 value);\n//     function totalSupply() external view returns (uint256);\n//     function balanceOf(address account) external view returns (uint256);\n//     function transfer(address to, uint256 amount) external returns (bool);\n//     function allowance(address owner, address spender) external view returns (uint256);\n//     function approve(address spender, uint256 amount) external returns (bool);\n//     function transferFrom(address from, address to, uint256 amount) external returns (bool);\n// }\n\n// contract DAITokenInterface {\n//     event Transfer(address indexed from, address indexed to, uint256 value);\n//     event Approval(address indexed owner, address indexed spender, uint256 value);\n//     function totalSupply() external view returns (uint256);\n//     function balanceOf(address account) external view returns (uint256);\n//     function transfer(address to, uint256 amount) external returns (bool);\n//     function allowance(address owner, address spender) external view returns (uint256);\n//     function approve(address spender, uint256 amount) external returns (bool);\n//     function transferFrom(address from, address to, uint256 amount) external returns (bool);\n// }\n\n\ncontract LoanProfile is Ownable {\n\n    event updatedCollectedAmount(uint newAmount);\n\n    string public name = \"Mortgage A\";\n    address public homeOwner = 0xC6A3dd9e9D73Eb3e66669534Ed21ee169aEd7f14;\n    uint public loanAmount;\n    uint public timePeriod;\n    uint public timeCreated;\n    uint public collectedAmount;\n    uint public loanId;\n    uint public timeValidated; \n    HCToken public token;\n\n    address public USDCAddress = 0x07865c6E87B9F70255377e024ace6630C1Eaa37F;\n    USDCInterface USDC = USDCInterface(USDCAddress);\n\n    // address public DAITokenAddress = 0x31F42841c2db5173425b5223809CF3A38FEde360;\n    // DAITokenInterface DAI = DAITokenInterface(DAITokenAddress);\n\n    // address public USDTAddress = 0x110a13FC3efE6A245B50102D2d79B3E76125Ae83;\n    // USDTInterface USDT = USDTInterface(USDTAddress);\n\n    address[] public investors;\n\n    mapping(address => uint) public investedAmount;\n    mapping(address => bool) public hasInvested;\n    mapping(address => bool) public isInvesting;\n\n    constructor(uint _loanId, uint _loanAmount, uint _timePeriod, address HCTokenAddress) public onlyOwner {\n        loanId = _loanId;\n        loanAmount = _loanAmount;\n        timePeriod = _timePeriod;\n        timeCreated = block.timestamp;\n        collectedAmount = 0;\n        token = HCToken(HCTokenAddress);\n        token.mint(address(this),100); //Mint some tokens for the address\n    }\n    \n    function deposit(uint _amount) public {\n        require(_amount > 0, \"Amount cannot be 0\");\n        require(block.timestamp<(timeCreated+timePeriod),\"The loan period is over\");\n        //deposit stable coin\n        USDC.transferFrom(msg.sender, address(this), _amount);\n        //update investedAmount\n        investedAmount[msg.sender] = investedAmount[msg.sender] + _amount;\n        //add to investors array if havent stake \n        if(!hasInvested[msg.sender]) {\n            investors.push(msg.sender);\n        } \n        //update staking status\n        isInvesting[msg.sender] = true;\n        hasInvested[msg.sender] = true;\n        //update collected amount\n        collectedAmount= collectedAmount + _amount;\n        exchange(msg.sender, _amount);        \n        emit updatedCollectedAmount(collectedAmount);       \n    }\n\n    //Exchange amount deposited for HCtoken\n    function exchange(address to,uint _amount) internal{\n        token.transfer(to, rate() * _amount);\n    }\n\n     /**\n     * @dev Refund the amount invested if the loan wasn't completed\n     */\n    function refund() public payable{\n        require(block.timestamp >= (timeCreated + timePeriod),\"The loan period hasn't passed yet\");\n        require(isInvesting[msg.sender],\"You're not an investor\");\n        uint balance = investedAmount[msg.sender];\n        require(msg.value == balance,\"Amount of tokens invalid\");\n        USDC.transfer(msg.sender, balance);\n        token.transferFrom(msg.sender,address(this),balance);\n    }\n\n//This function is external because I'm not expecting tocall this internally\n    function loanFulfilled() external onlyOwner {\n        require(collectedAmount == loanAmount);\n        timeValidated=block.timestamp;\n        USDC.transferFrom(address(this), homeOwner, collectedAmount);\n    }\n\n    //Went with S-Curve function: price = a/(1+exp^-b( tokenSupply -c)) \n    //(a) Price Ceiling \n    //(b) dictates how aggressively the curve accelerates in the growth phase,\n    //(c) determines the inflection point of the curve\n    function rate() internal returns(uint){\n        return 1;\n    }\n    \n}\n",
  "sourcePath": "/home/sordgom/work/HomecrowdDefiPrototype/contracts/LoanProfile.sol",
  "compiler": {
    "name": "solc",
    "version": "0.8.15+commit.e14f2714.Emscripten.clang"
  },
  "schemaVersion": "3.4.8",
  "updatedAt": "2022-08-29T04:18:26.602Z",
  "networkType": "ethereum",
  "devdoc": {
    "kind": "dev",
    "methods": {
      "owner()": {
        "details": "Returns the address of the current owner."
      },
      "refund()": {
        "details": "Refund the amount invested if the loan wasn't completed"
      },
      "renounceOwnership()": {
        "details": "Leaves the contract without owner. It will not be possible to call `onlyOwner` functions anymore. Can only be called by the current owner. NOTE: Renouncing ownership will leave the contract without an owner, thereby removing any functionality that is only available to the owner."
      },
      "transferOwnership(address)": {
        "details": "Transfers ownership of the contract to a new account (`newOwner`). Can only be called by the current owner."
      }
    },
    "version": 1
  },
  "userdoc": {
    "kind": "user",
    "methods": {},
    "version": 1
  }
}